:100000000C9434000C943E000C943E000C943E0082
:100010000C943E000C943E000C943E000C943E0068
:100020000C943E000C943E000C943E000C943E0058
:100030000C943E000C943E000C943E000C943E0048
:100040000C943E000C943E000C943E000C943E0038
:100050000C943E000C943E000C943E000C943E0028
:100060000C943E000C943E0011241FBECFEFD8E04C
:10007000DEBFCDBF0E945A000C9471000C940000AA
:1000800080E480937C0087E880937A000895ECE711
:10009000F0E090818770982B9083EAE7F0E0808110
:1000A00080648083808186FDFDCF8091780090916F
:1000B000790008958FEF84B90E94400080E00E948B
:1000C00047008115924010F0289A01C028988FEFC0
:1000D00091EE24E0815090402040E1F700C0000004
:0600E000EDCFF894FFCF04
:00000001FF
